03300000        2048169685000120227930130116541     000999999           EOS FUNDO DE INVESTIMENTO EM DBANCO SANTANDER (BRASIL) S/A            207102025      000373040                                                                          
03371841T01  040 2048169685000120000449167           227130130116541     EOS FUNDO DE INVESTIMENTO EM D                                                                                0000037307102025                                         
0337184300001T 06227130130116541        000000000677720002508618     07102025000000000093006237588000000000272000000000000609001000099999999999ERIKA DE XXXXXXX XXXXXXX XXXXX          01301165410000000000000000400000000                      
0337184300002U 060000000000000000000000000000000000000000000000000000000000000000000000930060000000000930060000000000000000000000000000000710202508102025000000000000000000000000000                              000                           
03371845         0000640294760000000234547707500000000000000000000000000000000000000000000000000000000000000000000000000323                                                                                                                     
03371849         000001000006
